S00E00004B6574726F6E2E73726563A3
S11300000C943F180C9467180C9467180C94671898
S11300100C9467180C9467180C9467180C94671860
S11300200C9467180C9467180C9467180C94671850
S11300300C9467180C9467180C9467180C94671840
S11300400C9455350C9467180C948F340C94C1346B
S11300500C9467180C9467180C9467180C94671820
S11300600C9467180C946718452752275227522777
S113007052275227522752275227522752275227B4
S113008052275227522752274527522752275227B1
S11300905227522752275227522752275227522794
S11300A05227522752275227452752275227522791
S11300B05227522752275227522752275227522774
S11300C05227522752275227452752275227522771
S11300D05227522752275227522752275227522754
S11300E05227522752275227402752275227522756
S11300F05227522752275227522752275227522734
S11301005227522752275227402752275227522735
S11301105227522752275227522752275227522713
S11301205227522752275227452752275227522710
S113013052275227522752275227522752275227F3
S113014052275227522752274A274027452740271C
S11301505227522732275227322752273227322753
S11301603227522732273227452752275227522730
S113017052275227522752275227522752275227B3
S113018052275227522752274527522752275227B0
S11301905227522752275227522752275227522793
S11301A05227522752275227452752275227522790
S11301B05227522752275227522752275227522773
S11301C05227522752275227452752275227522770
S11301D05227522752275227522752275227522753
S11301E05227522752275227402752275227522755
S11301F05227522752275227522752275227522733
S11302005227522752275227402752275227522734
S11302105227522752275227522752275227522712
S1130220522752275227522745275227522752270F
S113023052275227522752275227522752275227F2
S113024052275227522752274A274027452740271B
S11302505227522731275227312752273127312756
S11302603127522731273127612857295729572900
S1130270572957295729572957295729572957297A
S11302805729572957295729712857295729572951
S1130290572957295729572957295729572957295A
S11302A05729572957295729D928572957295729C9
S11302B0572957295729572957295729572957293A
S11302C05729572957295729AF28572957295729D3
S11302D0572957295729572957295729572957291A
S11302E05729572957295729F8285729572957296A
S11302F057295729572957295729572957295729FA
S11303005729572957295729EA2857295729572957
S113031057295729572957295729572957295729D9
S11303205729572957295729C02857295729572961
S113033057295729572957295729572957295729B9
S11303405729572957295729062920292A293E2977
S11303505729572948295729822857298B2894280F
S11303609D285729A6285029BA29252AF629DF29A4
S11303704E2A4E2AA4294E2AA4294E2AA429A42965
S1130380A4294E2AA429A429782E8A2E9C2EAE2E86
S1130390C02ED22EE42EF62E082F1A2F2C2F3E2FED
S11303A0502F00000000003E5B4F5B3E3E6B4F6BE6
S11303B03E1C3E7C3E1C183C7E3C181C577D571C42
S11303C01C5E7F5E1C00183C1800FFE7C3E7FF00BB
S11303D018241800FFE7DBE7FF30483A060E262909
S11303E0792926407F050507407F05253F5A3CE7CC
S11303F03C5A7F3E1C1C08081C1C3E7F14227F2292
S1130400145F5F005F5F06097F017F006689956A5C
S1130410606060606094A2FFA29408047E040810E7
S1130420207E201008082A1C08081C2A08081E1010
S11304301010100C1E0C1E0C30383E3830060E3EC8
S11304400E06000000000000005F00000007000727
S113045000147F147F14242A7F2A12231308646251
S113046036495620500008070300001C22410000B2
S113047041221C002A1C7F1C2A08083E0808008010
S113048070300008080808080000606000201008A8
S113049004023E5149453E00427F400072494949A9
S11304A0462141494D331814127F102745454539DB
S11304B03C4A4949314121110907364949493646DF
S11304C04949291E000014000000403400000008BF
S11304D01422411414141414004122140802015962
S11304E009063E415D594E7C1211127C7F494949EF
S11304F0363E414141227F4141413E7F4949494184
S11305007F090909013E414151737F0808087F00B2
S1130510417F41002040413F017F081422417F4038
S11305204040407F021C027F7F0408107F3E41410F
S1130530413E7F090909063E4151215E7F0919297F
S113054046264949493203017F01033F4040403F69
S11305501F2040201F3F4038403F631408146303AA
S1130560047804036159494D43007F414141020429
S1130570081020004141417F040201020440404030
S11305804040000307080020545478407F28444426
S1130590383844444428384444287F385454541840
S11305A000087E090218A4A49C787F08040478003B
S11305B0447D40002040403D007F1028440000411D
S11305C07F40007C047804787C0804047838444430
S11305D04438FC1824241818242418FC7C08040427
S11305E008485454542404043F44243C4040207C90
S11305F01C2040201C3C4030403C44281028444CE3
S11306009090907C4464544C4400083641000000AF
S1130610770000004136080002010204023C262350
S1130620263C1EA1A161123A4040207A3854545508
S113063059215555794121545478412155547840D4
S113064020545579400C1E5272123955555559395A
S11306505454545939555454580000457C410002AF
S1130660457D420001457C40F0292429F0F02825ED
S113067028F07C545545002054547C547C0A097F4E
S11306804932494949323248484832324A48483066
S11306903A4141217A3A42402078009DA0A07D3918
S11306A0444444393D4040403D3C24FF2424487E9A
S11306B04943662B2FFC2F2BFF0929F620C0887E87
S11306C0090320545479410000447D413048484A8C
S11306D032384040227A007A0A0A727D0D19317D3F
S11306E02629292F28262929292630484D40203813
S11306F00808080808080808382F10C8ACBA2F10D2
S11307002834FA00007B000008142A142222142A38
S11307101408AA005500AAAA55AA55AA000000FF69
S113072000101010FF00141414FF001010FF00FF3D
S11307301010F010F0141414FC001414F700FF004F
S113074000FF00FF1414F404FC141417101F1010FD
S11307501F101F1414141F00101010F000000000CC
S11307601F101010101F10101010F010000000FFC8
S1130770101010101010101010FF10000000FF14C3
S11307800000FF00FF00001F10170000FC04F41419
S1130790141710171414F404F40000FF00F71414D1
S11307A01414141414F700F7141414171410101F4D
S11307B0101F141414F4141010F010F000001F1083
S11307C01F0000001F14000000FC140000F010F0D3
S11307D01010FF10FF141414FF141010101F000049
S11307E00000F010FFFFFFFFFFF0F0F0F0F0FFFF5C
S11307F0FF0000000000FFFF0F0F0F0F0F384444ED
S113080038447C2A2A3E147E02020606027E027EB8
S11308100263554941633844443C04407E201E2011
S113082006027E020299A5E7A5991C2A492A1C4CB6
S11308307201724C304A4D4D303048784830BC62B9
S11308405A463D3E494949007E0101017E2A2A2A31
S11308502A2A44445F444440514A444040444A5153
S1130860400000FF0103E080FF000008086B6B08F4
S11308703612362436060F090F0600001818000039
S1130880001010003040FF0101001F01011E00197B
S11308901D1712003C3C3C3C00000000001301808A
S11308A032118064260104B1020B14C0020800C195
S11308B00105C5024130C701C1EC011B3A815564F1
S11308C02A040000007F2B040000009F3601C8B7F3
S11308D00100F20100E08F282422312B0E53A5429F
S11308E01618121A140332E18F171B1D0E14112C43
S11308F0A53D09272D252B3C3213800A2980FF01B1
S113090002030408090A0B0C0D0E0F111217181913
S11309101A1B1C1D1E1F21222324292A2B2C2D3196
S1130920323334353637383A3B3C3D3E3F40002085
S11309300021002200230024002601230120015667
S113094001270A200A210A22012501260025002761
S11309500121012201240154015501570A230A24CB
S11309600A250A260A270B290B2A0B4E0B540B7255
S113097001780179017A017B017C017D017E017F8F
S1130980007A007B007C007D007E007F0A780A7973
S11309900A7A0A7B0A7C0A7D0A7E0A7F007800793B
S11309A0006A006F006E0A6C0069016A0A6D006CCF
S11309B000730A6B0A6A0A6E006D006B00700A6F9E
S11309C000100A690A700B4A0B690B6A0B6C0B6DF9
S11309D00B4B007200740075007600770A710A727E
S11309E00A730A740A750A6A0A6F0A6E006C015364
S11309F00171017201730175017601770A51015089
S1130A00015101520174017801540A5200550A54EB
S1130A100A550A560B5400510052005300540A530D
S1130A200056005700580A570A580B510B520B53E3
S1130A300B580B800059005A005B005C005D005E9F
S1130A40005F00600061006200630064006500668E
S1130A5000670068014D014E014F0A590A5A0A5BAA
S1130A600A5C0A5D0A5E0A5F0A600A610A620A6336
S1130A700A640A650A670A680B500B590B5A0B5B28
S1130A800B5C0B5D0B5E0B5F0B600B610B620B630E
S1130A900B640B660B670B650A660B32014300425D
S1130AA0004400410A420048004A004C014C004FF7
S1130AB00149014A004300450A4101410142014400
S1130AC0014B0A4A0049004B004D004E00460047C6
S1130AD00A430A440B3D0B3E00500A4B0A4C0A4D94
S1130AE00A4E0A4F0B3F0B400B410B420B430B4486
S1130AF00A500B490B450B460B470B48003E003987
S1130B00003A003C003F013E01390A3C013C0A3BEB
S1130B10013D0146014701480040013F013B0A3DB8
S1130B200A460A3F003B003D013A014001450A39AB
S1130B300A3A0A3E0A400A450A470A480A490B3B50
S1130B400B3C0B68003101310029002A002F012FD2
S1130B50003500360037013501370133002E002BF4
S1130B6000320A29002C00330136013401380A35D9
S1130B700A360A370034002D00300129012A012BDE
S1130B800A380B330B340B350B360B37012C012D84
S1130B90012E013001320A2A0B380B390B2C0B2D94
S1130BA00B2E0B2F0A2B0A2C0A2D0A2E0A2F0A3081
S1130BB00A310A320A330A340B310B300B6B0B3A0D
S1130BC00B5600380019001A001B001C001E011BE4
S1130BD0011A0163011E012001190A1D0169016B3B
S1130BE0001F0B1A0B1E016E0166001D011C011D66
S1130BF0011F016101620164016501670168016C03
S1130C00016D0A190A1A0A1B0A1C0A1E0A1F0A2065
S1130C100B190B1B0B1C0B1D0B1F0B200B210B2289
S1130C200B230B240B250B260B270B280B290B72EC
S1130C300B740B750B760B770B7800200B6E0B7C0B
S1130C400B7D0B7E0B7F0B4D0B4E0B4C00160017D0
S1130C50001801150116011701180A160A170A18B7
S1130C600B160B170B180B6F0B700B71016F0170C8
S1130C700A130012001300150114015B0160011333
S1130C8001110014015C015D015E01120A110A12D6
S1130C9000110A140A150B0B0B0C0B0D0B0E0B0F8A
S1130CA00B100B110B120B130B140B15015F0159D5
S1130CB0015A0B570B7B000C000D000E0009000AB3
S1130CC0000B000F010D01090071010A010B010C59
S1130CD0010E010F01100A0A0A0B0A0C0A0D0A0E72
S1130CE00A0F0A100B090B0A000100030102000499
S1130CF00A050005000601060105000800020A03B2
S1130D0001010A0101030104010701080A040007A3
S1130D100A020B010B020A060A070A080B030B045A
S1130D200B050B060B070A090B080B790B7A537496
S1130D30616E646172643128534429000000537465
S1130D40616E646172643228534429000000537454
S1130D50616E64617264310000000000000053742D
S1130D60616E646172643200000000000000526F22
S1130D706F6D000000000000000000000000466FDE
S1130D806C6B53442A000000000000000000416323
S1130D906F75737469632A000000000000004A61E3
S1130DA07A7A2A000000000000000000000053745A
S1130DB07564696F00000000000000000000466FC9
S1130DC06C6B0000000000000000000000004163A4
S1130DD06F757374696300000000000000004A61CD
S1130DE07A7A000000000000000000000000526F4A
S1130DF0636B310000000000000000000000526F2F
S1130E00636B320000000000000000000000446931
S1130E1073636F31000000000000000000004469AB
S1130E2073636F3200000000000000000000486F90
S1130E307573652A0000000000000000000054657E
S1130E4063686E6F2A000000000000000000546513
S1130E5063686E6F00000000000000000000486F2F
S1130E607573653100000000000000000000486F49
S1130E70757365320000000000000000000052613C
S1130E80702A000000000000000000000000486913
S1130E9070486F70310000000000000000004865D9
S1130EA06176795F506F702A000000000000486589
S1130EB06176795F506F7000000000000000456C9F
S1130EC0656374726F000000000000000000486950
S1130ED070486F703200000000000000000053777B
S1130EE0696E672A000000000000000000004272E2
S1130EF0757368312A00000000000000000042728F
S1130F007573683200000000000000000000537791
S1130F10696E6700000000000000000000004272DB
S1130F2075736831000000000000000000004F727B
S1130F3063686573747261000000000000004C6116
S1130F4074696E2A000000000000000000004C6973
S1130F50676874506F700000000000000000496E64
S1130F60647573747269616C000000000000446170
S1130F706E63653100000000000000000000446161
S1130F806E6365320000000000000000000053742E
S1130F907265657400000000000000000000522625
S1130FA04200000000000000000000000000436F49
S1130FB06E74656D706F7261727900000000416E2D
S1130FC0616C6F6731000000000000000000416E9A
S1130FD0616C6F67320000000000000000004E6585
S1130FE077536F756C00000000000000000047613B
S1130FF07261676500000000000000000000566F89
S113100063616C3100000000000000000000566FB6
S113101063616C32000000000000000000004C61BD
S113102079657265645069616E6F000000004C61FF
S113103074696E5069616E6F000000000000466DB7
S11310405468696E00000000000000000000526453
S1131050784F70657261746F7200000000005477FD
S1131060696E456C656374726F0000000000537410
S11310706167654D69780000000000000000487554
S11310806765464D00000000000000000000446950
S1131090676974696E650000000000000000476C19
S11310A0617373686F75736500000000000046612A
S11310B06E746173796C616E6400000000004974A1
S11310C0616C69616E506F73697469766500507202
S11310D0696E636970616C264F63747600004675AF
S11310E06C6C4F7267616E00000000000000436882
S11310F06F72757342330000000000000000486FF7
S1131100744F7267616E0000000000000000313609
S11311102D382D350000000000000000000050694B
S113112070654F6374617665000000000000546FC1
S11311306E65776865656C000000000000004D6F07
S11311407669654F7267616E0000000000004661B9
S113115073744472617762617273000000004361CA
S1131160726F7573656C4F7267000000000044690C
S113117061746F6E69630000000000000000426C3F
S11311807565734861727000000000000000436FD1
S11311906E7365727661746F727900000000436C3F
S11311A0617373696342726967687400000054680C
S11311B0696E466F6C6B00000000000000004A611D
S11311C07A7A4F63746176650000000000004D7503
S11311D07465645768610000000000000000526FED
S11311E0636B537472617400000000000000537458
S11311F072506F77657200000000000000005661B5
S11312006C76654C65616400000000000000536D5D
S11312106F6F7468456C656374726F00000053747B
S113122072617426466F6C6B0000000000004F7002
S1131230656E436F756E7472790000000000476F2D
S11312406C64656E537465656C0000000000436E49
S1131250747279446574756E650000000000416322
S11312606F7573742E5069636B696E6700005477F1
S1131270696E466F6C6B0000000000000000476957
S1131280707379000000000000000000000042724A
S1131290617A696C69616E00000000000000526FA1
S11312A0636B6162696C6C79000000000000467534
S11312B06E6B4261737300000000000000004D611A
S11312C078697069636B00000000000000004F6FD4
S11312D0684D6978000000000000000000004475BB
S11312E06847726F757000000000000000004461E0
S11312F068517561727465740000000000004C61EF
S1131300685472696F000000000000000000566F0E
S113131063616C5F5072616973650000000043692A
S11313206E656D61537472696E6773000000536378
S11313306F726500000000000000000000004161C1
S1131340684D697800000000000000000000487546
S11313506D6D696E670000000000000000004C61C4
S11313606843686F697200000000000000004C616F
S1131370684D656C6C6F43686F6972000000436868
S11313807572636843686F697200000000004E69FB
S1131390676874566F63616C7300000000004D6DE4
S11313A06800000000000000000000000000426F20
S11313B06F6D265561700000000000000000486F4A
S11313C0726E4372657363656E646F000000456DF1
S11313D07065726F72427261737300000000447230
S11313E07954656E6F7200000000000000005361C4
S11313F078436C7562000000000000000000537721
S1131400696E6754656E6F720000000000004261EF
S11314107269746F6E650000000000000000476C84
S1131420656E6E5361780000000000000000426F9A
S11314306F676965536178000000000000004F6326
S11314407461736178000000000000000000436FC5
S1131450756E746965536178000000000000536183
S11314607853656374696F6E000000000000536177
S1131470786573000000000000000000000042696D
S11314806C6C795361780000000000000000506F1C
S113149070536178000000000000000000004C75EB
S11314A074650000000000000000000000004D61B1
S11314B06E646F6C610000000000000000004C616D
S11314C074696E4861727000000000000000506F83
S11314D072747567756573650000000000004669E5
S11314E06E676572656426536C69646500004669BD
S11314F06E67657265644774720000000000466997
S11315006E676572536C6170000000000000506CDF
S1131510616E657400000000000000000000526F5E
S1131520636B53796E746800000000000000436828
S113153075636B0000000000000000000000536DA4
S11315406F6F74684C65616400000000000053799B
S11315506E7468506C7567000000000000005375DD
S113156062626173730000000000000000005379A0
S11315706E766F696365000000000000000044653A
S113158065704A617A7A00000000000000004D6531
S11315906D6F727953796E746800000000004576AF
S11315A06F6C7574696F6E00000000000000536971
S11315B0646572616C0000000000000000004E6F62
S11315C07274685769726500000000000000426C84
S11315D06F77696E6700000000000000000041752D
S11315E072616C00000000000000000000005665FD
S11315F06C76657400000000000000000000457473
S11316006E6F766F780000000000000000005768DD
S113161069737065720000000000000000004576E8
S11316206F70616400000000000000000000506C56
S113163075636B696E6700000000000000004D6177
S11316406C6C657441726561000000000000383004
S11316509273506164000000000000000000466CBA
S113166075747950616400000000000000004E7938
S11316706C6F6E5468656D65000000000000426F79
S113168074746C656443686F697200000000427290
S11316906173734869747300000000000000536FA5
S11316A075746865726E4861727000000000556E52
S11316B067617269616E5A69746865720000416C91
S11316C070656E43686F69720000000000004D6130
S11316D06C6C6574576F726C640000000000436F9B
S11316E0756E747279265765737465726E005374DF
S11316F06572656F466F6C6B000000000000416C02
S113170070656E4D757365747465000000004A6100
S11317107A7A4163636F7264696F6E00000042728B
S1131720696768744D7573657474650000003333BC
S1131730354A617A7A000000000000000000536D11
S11317406F6F74685F426173730000000000467538
S11317506E6B794D75746564000000000000436F82
S1131760756E7472794774720000000000004E793F
S11317706C6F6E5F736C6964650000000000506FED
S11317807765724775697400000000000000436CBF
S113179065616E43686F72757300000000005472D7
S11317A0656D6F6C6F4D61726B00000000005068D6
S11317B0617365456C656374726F000000004F725D
S11317C067616E4F766572647269766500004D6577
S11317D074616C0000000000000000000000446917
S11317E073746F727465640000000000000043723B
S11317F0756E6368000000000000000000004A618C
S11318007A7A436F6D626F00000000000000456348
S1131810686F6C656164000000000000000050699E
S1131820616E6F26537472696E67730000004772AD
S1131830616E6426506164000000000000004F6384
S113184074617069616E6F00000000000000456CF7
S1131850656374726F7061640000000000004D7372
S11318606B00000000000000000000000000537442
S1131870616765506E6F0000000000000000526F49
S11318806465730000000000000000000000456C67
S11318906F7069616E6F0000000000000000464D2B
S11318A04C6179657200000000000000000043688C
S11318B0696E65736542656C6C00000000005374CA
S11318C06572656F6368726F6D000000000042729C
S11318D06967687456696265730000000000546F9C
S11318E079426F78000000000000000000004D62A3
S11318F06972610000000000000000000000584D03
S1131900617342656C6C0000000000000000464DED
S11319104D6172696D626100000000000000506F4B
S1131920704F7267616E0000000000000000476F96
S11319307370656C00000000000000000000506F30
S1131940776572536C6F77000000000000005072DE
S1131950696E636970616C65000000000000447288
S1131960794F7267616E0000000000000000416C56
S113197070656E0000000000000000000000426579
S11319806C6C6F77000000000000000000005374CE
S1131990656972697363680000000000000044799F
S11319A06E61466F6C6B0000000000000000436F26
S11319B0756E747279467800000000000000487566
S11319C06D6275636B00000000000000000053743A
S11319D07261746F467800000000000000004163EB
S11319E02E53746572656F000000000000004163AF
S11319F06964000000000000000000000000506C5A
S1131A0075636B6564000000000000000000466C14
S1131A10616D656E636F00000000000000004163AB
S1131A206F757374696342617373000000004261EF
S1131A3073732647756974310000000000004F621B
S1131A40657262617331000000000000000052659D
S1131A5074726F42617373000000000000004675E9
S1131A6073696F6E000000000000000000004F6208
S1131A70657262617332000000000000000050656E
S1131A8064616C62617373000000000000004261D5
S1131A907373264775697432000000000000536CAC
S1131AA06F7756696F6C696E000000000000456C2A
S1131AB065637472696356696F6C696E000043688C
S1131AC0616D626572000000000000000000547A3D
S1131AD0697661676F000000000000000000537425
S1131AE061636361746F00000000000000005374C0
S1131AF072696E6746616C6C00000000000048610A
S1131B007270264F72636865737472610000537952
S1131B106D70686F6E79000000000000000046756B
S1131B206C6C456E73656D626C6500000000446901
S1131B306769737472696E6700000000000044698D
S1131B4073636F537472696E677300000000436FB0
S1131B50756E74727956696F6C696E000000547505
S1131B6075680000000000000000000000004F6FD6
S1131B70684769726C730000000000000000416156
S1131B80684769726C73000000000000000043683D
S1131B906F69720000000000000000000000546241
S1131BA06F6E657326436F726E6574000000536C2C
S1131BB069646554726F6D626F6E650000004469FC
S1131BC078696554707400000000000000004F70D4
S1131BD0656E486F726E00000000000000004272E3
S1131BE061737346616C6C4F666600000000486F59
S1131BF0726E5061640000000000000000004D752A
S1131C006C746942726173730000000000004272D8
S1131C10617373436F6F6C00000000000000416C3F
S1131C20746F7361780000000000000000004A61D6
S1131C307A7A416C746F0000000000000000416C6F
S1131C40746F537472616967687400000000526FA6
S1131C50636B5361780000000000000000005375BE
S1131C60706572686F726E000000000000005470AE
S1131C7074536C6964655570000000000000447280
S1131C80795472756D706574000000000000547220
S1131C90756D70657453656374696F6E00004F7081
S1131CA0656E54726F6D626F6E65730000004972E9
S1131CB0697368466C757465000000000000537415
S1131CC061636361746F466C7574650000004173F1
S1131CD069616E466C757465000000000000466919
S1131CE0666500000000000000000000000045746C
S1131CF0686E6963466C7574650000000000537477
S1131D0061636361746F57686973746C65005069CB
S1131D107065000000000000000000000000536F28
S1131D206C6F44616E6365000000000000004A753A
S1131D3069637900000000000000000000004472A4
S1131D40616D6100000000000000000000004F64AD
S1131D5069737365790000000000000000004D699C
S1131D606E696D756700000000000000000041749A
S1131D707461636B00000000000000000000506804
S1131D80616E746F6D000000000000000000536F6E
S1131D906C6F69737400000000000000000057615C
S1131DA0726D6E65737300000000000000004578DA
S1131DB0706C6F72657200000000000000004368E0
S1131DC06F72616C000000000000000000004379A5
S1131DD062657200000000000000000000004D6118
S1131DE06769630000000000000000000000476C09
S1131DF06F636B70616400000000000000005374A6
S1131E007265616D0000000000000000000044697C
S1131E10676950726F0000000000000000005573F5
S1131E205061640000000000000000000000426FE8
S1131E3074746C65644169720000000000004265BE
S1131E406C6C766F780000000000000000004469AC
S1131E5067695061640000000000000000005379CD
S1131E606E746178000000000000000000004272FF
S1131E7069676874416E616C6F67000000004175AA
S1131E8072615061640000000000000000004163C2
S1131E906F7573746963447265616D0000005472F8
S1131EA065730000000000000000000000004261B3
S1131EB06E6A6F35537472696E6700000000467570
S1131EC0746F7A616F000000000000000000486138
S1131ED0636B62726574740000000000000050615E
S1131EE0726167756179616E486172700000536850
S1131EF06F72744D616E646F6C696E0000004861AE
S1131F007270476C697373616E646F000000426F96
S1131F10757A756B690000000000000000005469C8
S1131F206E6B6C65730000000000000000005472CA
S1131F3069616E676C650000000000000000546178
S1131F406D626F7261000000000000000000436CCD
S1131F50617665730000000000000000000041632A
S1131F602E546F6D0000000000000000000042725B
S1131F70757368746F6D0000000000000000536EFC
S1131F806172650000000000000000000000437260
S1131F90617368000000000000000000000053634B
S1131FA07261746368310000000000000000536334
S1131FB07261746368320000000000000000536323
S1131FC07261746368330000000000000000536312
S1131FD07261746368340000000000000000536301
S1131FE072617463683500000000000000004678E8
S1131FF0536C6170000000000000000000004C61A0
S113200073657200000000000000000000005769C2
S11320106E640000000000000000000000004A6937
S11320206E676C6500000000000000000000446161
S1132030726B4772616E6400000000000000486F1C
S11320407573650000000000000000000000537577
S113205069746361736500000000000000004D6155
S1132060726B0000000000000000000000004675D4
S11320706E6B447800000000000000000000466D14
S113208054696E6500000000000000000000445820
S11320905069616E6F000000000000000000546F82
S11320A079506164000000000000000000004F72DD
S11320B063682E42656C6C000000000000004D61F6
S11320C06C6C6574000000000000000000005368A0
S11320D06F727456696265000000000000004B6175
S11320E072696D6261000000000000000000457428
S11320F06E6F776F6F6400000000000000004D6594
S113210074616C6C6F70686F6E65000000005769D5
S11321106E646368696D6573000000000000526FAF
S1132120746F7246610000000000000000004A6104
S11321307A7A4F7267616E000000000000004472FA
S11321406177626172000000000000000000506FBF
S1132150736974697665000000000000000046722F
S1132160656E63684D75736574746500000046722E
S1132170616E6361697365000000000000004361E3
S113218073736F74746F00000000000000005461EA
S11321906E676F0000000000000000000000436C48
S11321A06173736963000000000000000000466F63
S11321B06C6B000000000000000000000000467589
S11321C06E6B5374726174000000000000003630BE
S11321D02753746F707065640000000000004D7533
S11321E074656476656C6F00000000000000566939
S11321F06E74616765000000000000000000313269
S1132200537472696E677300000000000000536F1E
S11322106C6964626F64790000000000000057611B
S1132220726D426173730000000000000000466F8D
S11322306C6B4261737300000000000000004D7578
S1132240746542617373000000000000000044657F
S1132250657042617373000000000000000050725A
S113226065636973696F6E000000000000005265C9
S1132270736F42617373000000000000000053613B
S11322807742617373000000000000000000486F93
S113229075736542617373000000000000005068AC
S11322A0696C61726D6F6E696300000000005175A6
S11322B06172746574000000000000000000476C47
S11322C06F636B537472696E6700000000004F63A4
S11322D07461537472696E677331000000004F6358
S11322E07461537472696E677332000000004D614B
S11322F0726361746F0000000000000000005374FA
S113230072696E672646616C6C0000000000536CB5
S11323106F774172636F7300000000000000426F2A
S1132320776564537472696E6773000000004461DA
S1132330726B537472696E6773000000000044612D
S11323406800000000000000000000000000436C72
S1132350617373696343686F6972000000004D65BF
S11323606E5F446F6F0000000000000000004769CA
S1132370726C5F446F6F00000000000000004C614D
S11323806168000000000000000000000000566FBB
S113239069636573000000000000000000005377CB
S11323A0696E675470740000000000000000436F01
S11323B0726E6574000000000000000000004575A6
S11323C070686F6E69756D000000000000004D6953
S11323D06C65735470740000000000000000466CCB
S11323E07567686F726E000000000000000053748F
S11323F06572656F4272617373000000000047727A
S11324006F774272617300000000000000004F63A8
S11324107461627261737300000000000000536F06
S11324207072616E6F0000000000000000004369DC
S113243072637573536178000000000000004C6FF4
S1132440756E676554656E6F720000000000477218
S11324506F776C53617800000000000000004D6548
S11324606C6F5472756D7065740000000000486FE5
S1132470726E5377656C6C000000000000005472AB
S1132480756D706574730000000000000000536FE8
S1132490667454726F6D626F6E65730000004C61F8
S11324A074696E466C757465000000000000506F1E
S11324B070466C7574650000000000000000416EF9
S11324C06465730000000000000000000000566F07
S11324D0696365466C757465000000000000416E18
S11324E0616C6F6773000000000000000000466C20
S11324F0616E676572000000000000000000427217
S11325006967687470616400000000000000576926
S113251072696E6700000000000000000000576F41
S11325207700000000000000000000000000506F71
S11325306C7973796E7468000000000000005472B6
S1132540616E636500000000000000000000576138
S113255076650000000000000000000000005261E9
S113256076654261737300000000000000004D6F47
S113257064756C6172426173730000000000506501
S1132580726375737369766542617373000057698A
S11325906C64426173730000000000000000326E3E
S11325A06450657263000000000000000000337492
S11325B06850657263000000000000000000506F66
S11325C07765724661000000000000000000546F4F
S11325D06E6562617200000000000000000044614A
S11325E0726B4233000000000000000000004A69E2
S11325F06D6D794F72672E000000000000004C6F73
S1132600776572382D3400000000000000004A6134
S11326107A7A790000000000000000000000506F8A
S1132620705374726174000000000000000054656F
S11326306C6563610000000000000000000053743A
S11326407261746F00000000000000000000546517
S1132650786173000000000000000000000057656E
S1132660737465726E00000000000000000046698B
S11326706E6765727069636B00000000000035745A
S11326806853746F70730000000000000000576806
S113269061677569746172000000000000004861A0
S11326A0776169616E0000000000000000004D6168
S11326B06E646F6C696E0000000000000000446AE4
S11326C0616E676F00000000000000000000436CB2
S11326D06173736963467800000000000000506570
S11326E064616C737465656C000000000000526FD7
S11326F0636B26526F6C6C00000000000000526592
S11327006564380000000000000000000000466915
S11327107361380000000000000000000000476101
S1132720746567726F757000000000000000416DF1
S1132730617A696E67000000000000000000486FC5
S113274075736573796E746800000000000052654B
S1132750736F6E616E6365000000000000004B65DE
S1132760794C6561640000000000000000004A75B7
S11327706E6F53796E7468000000000000004F62B1
S113278078506F6C790000000000000000004A5887
S11327904272617373000000000000000000416C8D
S11327A061726D26536972656E65000000004A65AA
S11327B074000000000000000000000000005066EB
S11327C06966264A65775F4861727000000052614D
S11327D0696E000000000000000000000000566F59
S11327E063616C7300000000000000000000546886
S11327F0756E6465720000000000000000005472F1
S113280061696E00000000000000000000005377C2
S113281065657000000000000000000000004772C1
S1132820616E645069616E6F000000000000526FB9
S1132830636B5069616E6F00000000000000456C1E
S11328406563747269630000000000000000486F53
S11328506E6B792D746F6E6B000000000000456C88
S11328602E5069616E6F3100000000000000456C5D
S11328702E5069616E6F3200000000000000486154
S11328807270736963686F72640000000000436CC7
S1132890617669000000000000000000000043654C
S11328A06C65737461000000000000000000476C58
S11328B06F636B656E737069656C000000004D7525
S11328C0736963426F7800000000000000005669DD
S11328D062726170686F6E650000000000004D61F7
S11328E072696D6261000000000000000000587908
S11328F06C6F70686F6E6500000000000000547516
S113290062756C617262656C6C73000000004475E2
S11329106C63696D65720000000000000000526F76
S1132920746172790000000000000000000050652E
S11329307263757373697665000000000000526F5E
S1132940636B4F7267616E00000000000000436813
S11329507572636800000000000000000000546805
S113296065617472650000000000000000004D7590
S11329707365747465000000000000000000486185
S1132980726D6F6E696361000000000000004261B7
S11329906E646F6E656F6E000000000000004E797B
S11329A06C6F6E0000000000000000000000537413
S11329B065656C00000000000000000000004A6132
S11329C07A7A000000000000000000000000436C60
S11329D065616E00000000000000000000004D75FD
S11329E074656400000000000000000000004F76E1
S11329F06572647269766500000000000000446935
S1132A0073746F7274656400000000000000486114
S1132A10726D6F6E69637300000000000000416313
S1132A206F7573746963000000000000000046695C
S1132A306E6765720000000000000000000050692D
S1132A40636B656400000000000000000000467233
S1132A5065746C6573730000000000000000536C23
S1132A606170426173730000000000000000536C49
S1132A70617042617373000000000000000053792C
S1132A806E626173000000000000000000005379D2
S1132A906E626173000000000000000000005669CF
S1132AA06F6C696E000000000000000000005669B1
S1132AB06F6C61000000000000000000000043652E
S1132AC06C6C6F0000000000000000000000436F09
S1132AD06E747261626173730000000000005472CE
S1132AE0656D6F6C6F00000000000000000050690D
S1132AF07A7A696361746F00000000000000486125
S1132B007270000000000000000000000000546922
S1132B106D70616E690000000000000000005374D5
S1132B2072696E6773456E73000000000000536C99
S1132B306F77537472696E677300000000005379F5
S1132B406E537472696E677300000000000053795D
S1132B506E537472696E677300000000000043686E
S1132B606F69724161680000000000000000566F48
S1132B706963654F6F68000000000000000053792E
S1132B806E7468566F696365000000000000486950
S1132B907473000000000000000000000000547284
S1132BA0756D706574000000000000000000547230
S1132BB06F6D626F6E6500000000000000005475C8
S1132BC062610000000000000000000000004D757C
S1132BD074656454707400000000000000004672C4
S1132BE0656E6368486F726E0000000000004272F8
S1132BF0617373536563742E000000000000537901
S1132C006E4272617373000000000000000053798B
S1132C106E42726173730000000000000000416C9A
S1132C20746F736F66740000000000000000436F4F
S1132C306E7472616C746F000000000000005465D3
S1132C406E6F725361780000000000000000426162
S1132C507269746F6E5361780000000000004F6267
S1132C606F65000000000000000000000000456ED9
S1132C70676C2E486F726E00000000000000426115
S1132C8073736F6F6E000000000000000000436C5F
S1132C906172696E657400000000000000005069F4
S1132CA063636F6C6F000000000000000000466C5E
S1132CB0757465000000000000000000000052650B
S1132CC0636F7264657200000000000000005061D0
S1132CD06E466C7574650000000000000000426FD1
S1132CE074746C650000000000000000000053686C
S1132CF0616B7568617368690000000000005768C3
S1132D006973746C650000000000000000004F63EC
S1132D106172696E610000000000000000005371E0
S1132D20756172650000000000000000000053613E
S1132D3077746F6F74680000000000000000436146
S1132D406C6C696F7065000000000000000043684F
S1132D50696666000000000000000000000043688F
S1132D606172616E67000000000000000000566F91
S1132D70696365000000000000000000000046696F
S1132D80667468000000000000000000000042615A
S1132D907373264C65616400000000000000466106
S1132DA06E74617379000000000000000000576138
S1132DB0726D0000000000000000000000004E657D
S1132DC077416765000000000000000000005370B8
S1132DD06163650000000000000000000000536F04
S1132DE066740000000000000000000000004D6553
S1132DF074616C00000000000000000000004861E5
S1132E006C6F000000000000000000000000537719
S1132E1065657000000000000000000000004963C8
S1132E20655261696E000000000000000000536FED
S1132E30756E64747261636B00000000000043727D
S1132E40797374616C00000000000000000041749C
S1132E506D6F737068657265000000000000427257
S1132E60696768746E657373000000000000476F43
S1132E70626C696E00000000000000000000456301
S1132E80686F64726F707300000000000000537478
S1132E9061727468656D650000000000000053698C
S1132EA07461720000000000000000000000426134
S1132EB06E6A6F000000000000000000000053680C
S1132EC0616D6973656E00000000000000004B6FC7
S1132ED0746F0000000000000000000000004B615F
S1132EE06C696D6261000000000000000000426136
S1132EF0677069706500000000000000000046690A
S1132F0064646C6500000000000000000000536869
S1132F10616E616900000000000000000000546957
S1132F206E6B6C6562656C6C0000000000004167AC
S1132F306F676F0000000000000000000000537481
S1132F4065656C6472756D00000000000000576FC9
S1132F506F64626C6F636B000000000000005461DA
S1132F60696B6F00000000000000000000004D6568
S1132F706C6F746F6D000000000000000000537956
S1132F806E746F6D000000000000000000005265C8
S1132F907665727365000000000000000000467250
S1132FA065744E6F69736500000000000000427292
S1132FB065617468000000000000000000005365B3
S1132FC06173686F726500000000000000004269D0
S1132FD0726400000000000000000000000054655E
S1132FE06C6570686F6E6500000000000000486545
S1132FF06C69636F707465720000000000004170BA
S1133000706C617573650000000000000000477576
S11330106E73686F74000000000000000000000080
S11330200008000201000003040700000000000083
S1133030000001020408102040800102040810204E
S11330400102040810200404040404040404020219
S1133050020202020303030303030000000023002F
S11330602600290000000000250028002B00000095
S11330700000240027002A00332DE7348A2D112470
S11330801FBECFEFD8E0DEBFCDBF13E0A0E0B1E0BC
S1133090E0E5FFE602C005900D92AA30B107D9F72A
S11330A024E0AAE0B3E001C01D92A93DB207E1F714
S11330B018E1CEE3D8E104C02197FE010E945837FD
S11330C0CC33D107C9F70E94EA2D0C949B370C949A
S11330D0000020E5FC0120871186089508955F9281
S11330E06F927F928F929F92AF92BF92CF92DF9214
S11330F0EF92FF920F931F93CF93DF935C01C62F40
S1133100D0E02FEF30E0C901BE010E9422376B01ED
S1133110662E842E912CC901B4010E9422377B01B2
S1133120762E809113010E94EC3621E0892B09F060
S113313020E0F5012083809112010E94EC3621E009
S1133140892B09F020E0F5012183809111010E946F
S1133150EC3621E0892B09F020E0F50122838091EF
S113316010010E94EC3621E0892B09F020E0F501E2
S11331702383DD24CC9D8001CD9D100DDC9D100D9D
S1133180112410161106CCF4C0E0D0E0512C80912B
S11331900F010E943B3695958795959587958515E2
S11331A0D8F09927CC0DDD1D8C179D07ACF4852D27
S11331B0662D0E941637F5018583FF248E9C8001BD
S11331C08F9C100D9E9C100D11241016110644F5B1
S11331D0C12CD12CC0E007C0560CC52DD0E0C017BF
S11331E0D107ACF2EACF809122040E943B36959538
S11331F08795959587958C1768F09927CE0CDF1CD9
S11332008C159D053CF48C2F672D0E941637F50113
S1133210848306C0C70DCC2ED12CC016D1061CF356
S1133220DF91CF911F910F91FF90EF90DF90CF909E
S1133230BF90AF909F908F907F906F905F90089514
S1133240FC01DB018C919081981721F080838C9193
S11332508130A9F111968C9111979181981731F0D1
S1133260818311968C911197813081F112968C9102
S113327012979281981731F0828312968C9112974B
S11332808130F9F013968C9113979381981731F04C
S1133290838313968C9113978130A9F014968C91A3
S11332A014979481981719F0848383E008951596F0
S11332B08C919581981749F0858384E0089580E086
S11332C0089582E0089585E008958FEF0895209190
S11332D096013091970182179307A8F0E091940129
S11332E0F0919501E817F90788F0DC01A60FB71FE4
S11332F0A217B30770F0EA17FB0770F00E9434308E
S113330080E090E0089582E090E0089582E090E00B
S1133310089582E090E0089582E090E0089520917D
S113332096013091970182179307A8F0E0919401D8
S1133330F0919501E817F90788F0DC01A60FB71F93
S1133340A217B30770F0EA17FB0770F00E9415305C
S113335080E090E0089582E090E0089582E090E0BB
S1133360089582E090E0089582E090E008950F933C
S11333701F93CF93DF9300D000D000D0CDB7DEB73A
S11333808C01AE014F5F5F4F66E070E08091960163
S1133390909197010E948F1944E050E069E971E02F
S11333A0CE0101960E947737892B31F0F801118202
S11333B0108285E090E00BC02D813E81F8013183BD
S11333C0208381E090E02230310509F480E02696E4
S11333D00FB6F894DEBF0FBECDBFDF91CF911F9122
S11333E00F910895DC01FB01655F7F4F80E030E2BF
S11333F021E09D91992311F0882319F03083822FC5
S113340001C090833196E617F70799F708958F92D4
S11334109F92AF92BF92CF92DF92EF92FF920F935F
S11334201F93CF93DF93CDB7DEB76D970FB6F894A4
S1133430DEBF0FBECDBF4C015B016A01CE014C96CD
S11334400E94B7197C01892BD9F50091960110913E
S113345097010A5F1F4FBE016F5E7F4FC4010E9438
S1133460F219AE014F5F5F4F60E170E0C8010E9446
S11334708F19009721F54BE050E0BE016F5E7F4F3E
S1133480CE0101960E947737892B71F488898111C6
S11334900BC0005F1F4FF501118300838C859D8550
S11334A0F601918380830CC00E851F8501151105DB
S11334B0C1F60F2EF3E0EF2EF12CF02D01C07C01AC
S11334C0C7016D960FB6F894DEBF0FBECDBFDF9176
S11334D0CF911F910F91FF90EF90DF90CF90BF900D
S11334E0AF909F908F900895AF92BF92CF92DF924A
S11334F0EF92FF920F931F93CF93DF93CDB7DEB775
S1133500A2970FB6F894DEBF0FBECDBF7B018A0130
S1133510B22EBE016F5F7F4F0E94F219CE018196D9
S11335200E94B719009709F08BC0C0909601D09003
S1133530970186E0C80ED11CAE014F5E5F4F60E17B
S113354070E0C6010E948F19009709F079C088A124
S113355081115FC04BE050E0BE016F5F7F4FCE0131
S113356041960E947737892B09F053C04CC0B110A3
S11335700FC087E090E064C0AC8CBD8CA114B10492
S113358009F451C080E1A80EB11CAC0CBD1C4CC0A8
S1133590C8010F968C0D9D1D2091940130919501C9
S11335A02817390738F11D870C878E8D9F8D00975A
S11335B021F456011F861E8603C09F878E875601FD
S11335C0188ABF8EAE8EAE014F5E5F4F60E170E031
S11335D0C6010E946719AE014F5F5F4F60E170E062
S11335E0C5010E946719A701B801C50140960E9450
S11335F0671926C084E090E023C087E090E020C0F3
S113360084E090E01DC08C8D9D8D08171907A9F7E3
S1133610AECF8E8D9F8D009709F4AECF6C018CCF09
S11336201D870C87C7CF5601C8010F968A0D9B1DB5
S113363020919401309195012817390708F3F0CFB0
S1133640A2960FB6F894DEBF0FBECDBFDF91CF9127
S11336501F910F91FF90EF90DF90CF90BF90AF90AC
S11336600895CF93DF93CDB7DEB766970FB6F8947E
S1133670DEBF0FBECDBF8FE493E59A83898386E4D2
S113368093E59C838B8382E090E09E838D83AE01DF
S11336904F5F5F4F66E070E08091960190919701D3
S11336A00E9467199C010097C9F4BE01695F7F4FAE
S11336B08FE292E00E94F2191B8A1A8A1D8A1C8AE0
S11336C01E8A8091960190919701AE01495F5F4FE8
S11336D060E170E006960E94671901C0932F669618
S11336E00FB6F894DEBF0FBECDBFDF91CF91089522
S11336F0CF93CFB7F89480910D03811127C0E0E5F3
S1133700F0E38491ECE3F0E39491E82FF0E0EE0F22
S1133710FF1FE259FF4CA591B491EC91E92321F4E8
S113372061E08AE00E94BD3661E08AE00E94813651
S11337308CB580618CBD8CB580648CBD61E08DE0FE
S11337400E94813661E08BE00E94813680910D03F6
S11337508F5F80930D03CFBFCF91089580E090E0F9
S113376008950895CF93DF93EC010E94721F82EABB
S113377091E09983888380EA90E09987888780E83C
S113378090E09B878A87DF91CF910895CF93DF9351
S1133790EC010E94A02161E0CE010E94D225DF91BC
S11337A0CF9108952F923F924F925F926F927F92A2
S11337B08F929F92AF92BF92CF92DF92EF92FF923D
S11337C00F931F93CF93DF9300D000D000D0CDB7D9
S11337D0DEB75C017E836D836A014901C801FA8208
S11337E0E9829801241B350B290122F44424552431
S11337F0421A530A94014D815E81241B350B7901D1
S113380022F4EE24FF24E21AF30AE414F5045CF42F
S1133810382D292D4C01832F922F3D812E81DE825C
S1133820CD82C32ED22EAD81BE818A169B060CF0AA
S11338305FC0A819B909BC83AB839601281B390B57
S1133840190122F422243324221A330A6B807C8047
S113385077201CF4BFEF6B1A7B0A759467948C1560
S11338609D051CF401E010E002C00FEF1FEF2D8155
S11338703E81281539050CF45BC06C019D818E8155
S11338809E828D82892E982E02C00FEF1FEFE414C2
S1133890F50474F4D501ED91FC910084F185E02DDB
S11338A029813A814D815E81B601C50109950DC01A
S11338B0D501ED91FC910084F185E02D29813A81B7
S11338C0A6016D817E81C50109956218730832F4E1
S11338D0C00ED11E2B813C81620E731E4D815E8110
S11338E04F5F5F4F5E834D838416950684F620C038
S11338F0D4012D813E81A21BB30BBC83AB839C01FD
S11339002C193D09190122F422243324221A330AE2
S11339106B807C8077201CF43FEF631A730A7594E4
S11339206794C816D9060CF0B0CF01E010E0AFCF11
S113393026960FB6F894DEBF0FBECDBFDF91CF91B0
S11339401F910F91FF90EF90DF90CF90BF90AF90B9
S11339509F908F907F906F905F904F903F902F90AB
S113396008956F927F928F929F92AF92BF92CF925F
S1133970DF92EF92FF920F931F93CF93DF93EC01AB
S11339804B015A0169013801E881F9810684F78500
S1133990E02D87010995A501460D571D4150510998
S11339A0E881F9810684F785E02D9601B401CE0102
S11339B00995E881F9810484F585E02D9301A50139
S11339C0B401CE010995C80CD91CB6016150710926
S11339D0E881F9810484F585E02D9301A501CE01E8
S11339E00995DF91CF911F910F91FF90EF90DF9098
S11339F0CF90BF90AF909F908F907F906F900895DD
S1133A00EF92FF920F931F93240F351F215031091A
S1133A10DC01ED91FC910284F385E02D78018901AC
S1133A209B0109951F910F91FF90EF900895EF92DC
S1133A30FF920F931F93260F371F21503109DC018A
S1133A40ED91FC910284F385E02D78018A010995BA
S1133A501F910F91FF90EF9008956F927F928F9234
S1133A609F92AF92BF92CF92DF92EF92FF920F9309
S1133A701F93CF93DF936C01EB014A015801370187
S1133A807B01E20EF31E6E157F0584F4D601ED91E1
S1133A90FC910484F585E02D83019501A401BE0108
S1133AA0C60109952196CE15DF0584F3DF91CF91E8
S1133AB01F910F91FF90EF90DF90CF90BF90AF9048
S1133AC09F908F907F906F900895EF92FF920F9345
S1133AD01F93DC011A960D911C911B9718962D913A
S1133AE03C911997ED91FC910288F389E02D7B01BB
S1133AF040E050E060E070E009951F910F91FF9065
S1133B00EF90089508954C7F842F90E0880F991FBB
S1133B10880F991F880F991F30E0359527953595A3
S1133B20279535952795822B932B687F962B08959F
S1133B30FC011382128280EC91E09183808375836F
S1133B406483578346837187608753874287158AC6
S1133B50158614861786168681E0848B2FEF3FEF37
S1133B60338B228B318B208B868B08952F923F923F
S1133B704F925F926F927F928F929F92AF92BF9279
S1133B80CF92DF92EF92FF920F931F93CF93DF9325
S1133B90CDB7DEB761970FB6F894DEBF0FBECDBFC9
S1133BA0DC011896ED91FC9119976E177F070CF0C4
S1133BB0C3C01A96ED91FC911B974E175F070CF04A
S1133BC0BBC0EC2DF0E0FA83E983EE0FFF1FA9815F
S1133BD0BA81EA0FFB1FEE0FFF1FE60FF71F3197A5
S1133BE00AF4AAC0FD01EE0FFF1FEE0FFF1FEE0F38
S1133BF0FF1FE40FF51F31970AF49EC0CB82FD82AC
S1133C00EC8218015D874C875C0130E0C901880FA4
S1133C10991F880F991F280F391F4D0178876F83CB
S1133C207A8769871B86F901E61BF70BFF87EE8706
S1133C303A01F8E06F0E711C8B85853009F472C06F
S1133C40EE85FF85AF81B885EA0FFB1FEE55FC4F6B
S1133C50549069C050FE21C0BB81B13071F4D501CC
S1133C60ED91FC910084F185E02D910148895989F9
S1133C706F817885C501099537C0D501ED91FC9117
S1133C800288F389E02D710109811A819801A60146
S1133C90642D7E81C501099527C0EC81FD812E1616
S1133CA03F0611F1FB81F13079F4D501ED91FC91DE
S1133CB00084F185E02D2C813D81488959896F81EB
S1133CC07885C501099510C0D501ED91FC91028854
S1133CD0F389E02DEC80FD8009811A819801A60109
S1133CE0642D7E81C50109955694C80CD91CE889B8
S1133CF0F9893196F98BE88BE615F70509F0AACF17
S1133D00FB85FF5FFB8789859A85880D991D9A87B6
S1133D108987AF81B8851196B887AF83F63009F0EB
S1133D208BCF0AC0512C4984BA85BE83EC85FD85AE
S1133D306F01F98BE88B8ECF61960FB6F894DEBFD6
S1133D400FBECDBFDF91CF911F910F91FF90EF90E8
S1133D50DF90CF90BF90AF909F908F907F906F90A7
S1133D605F904F903F902F900895CF92EF92FF92E3
S1133D700F931F93CF93DF936A3079F4FC01448946
S1133D8026853785F8E04F9F200D311D1124FC0155
S1133D9037872687158614863CC06D30D1F1262FCF
S1133DA0EC01EA88FB88088919894E855F856C8552
S1133DB07D85CC880E94B61D2C8930E0C901880F0E
S1133DC0991F820F931F880F991F4C855D85840F5F
S1133DD0951F9D878C874E894423D9F04AEF42036F
S1133DE0B001439F700D112448855985460F571F14
S1133DF04817590774F4220F331F220F331F220F61
S1133E00331F8E859F85280F391F3F872E871D8678
S1133E101C8681E090E0DF91CF911F910F91FF907C
S1133E20EF90CF900895DC01ED91FC910488F58921
S1133E30E02D09950895CF93DF93EC01E881F98192
S1133E40008CF18DE02D099521E0298F988F8F8BBF
S1133E50998B888B9B8B8A8BDF91CF910895FC0182
S1133E6081E0818F708F678B718B608B738B628B1A
S1133E700895DC015996EC915997EE2379F0FC01F1
S1133E80168A8789908D918B808B938B828B558733
S1133E90448737872687CD010E94533508956111E1
S1133EA001C061E0FC01648B0895EF92FF920F93CF
S1133EB01F93DC011A960D911C911B9718962D9156
S1133EC03C911997ED91FC910288F389E02D7B01D7
S1133ED040E050E060E070E009951F910F91FF9081
S1133EE0EF900895FF920F931F93CF93DF93EC010C
S1133EF0F62E042F122F40EA50E060E870E00E9492
S1133F00981D8EED91E09983888380E58F8F18A2A8
S1133F10F9A60AA71BA781E08E8F1DA61CA6DF9118
S1133F20CF911F910F91FF900895FC01868D8823F6
S1133F30D9F0978D80A120910C03222399F02FB7FB
S1133F40F89430910C03313059F43DB330930A03A3
S1133F504DB330910B03309534233DBB2FBF02C0CA
S1133F6020930A039CBD8DBDA7A1B0A59C9181A9F6
S1133F70809589238C93A5A1B6A19C9180A9809555
S1133F8089238C93868D882339F06EBD00000DB48F
S1133F9007FEFDCF8EB525C048E050E020E8862F0F
S1133FA0822339F0A1A1B2A19C9186A5892B8C937F
S1133FB007C0A1A1B2A19C9186A5809589238C9369
S1133FC0A3A1B4A19C9187A5892B8C93A3A1B4A18F
S1133FD09C9187A5809589238C93269541505109FE
S1133FE0F1F6A5A1B6A19C9180A9892B8C93868D0D
S1133FF0882391F080910C03882371F09FB7F89483
S113400080910C03813029F480910A038DBB9FBFFA
S1134010089580910A038FBF0895611102C060E280
S113402001C061E20E94951F0895FC01868D8823DA
S1134030D9F0978D80A120910C03222399F02FB7FA
S1134040F89430910C03313059F43DB330930A03A2
S11340504DB330910B03309534233DBB2FBF02C0C9
S113406020930A039CBD8DBDA7A1B0A59C9181A9F5
S1134070892B8C93A5A1B6A19C9180A980958923B5
S11340808C93868D882339F06EBD00000DB407FE35
S1134090FDCF8EB525C048E050E020E8862F82236E
S11340A039F0A1A1B2A19C9186A5892B8C9307C05C
S11340B0A1A1B2A19C9186A5809589238C93A3A1EB
S11340C0B4A19C9187A5892B8C93A3A1B4A19C91A5
S11340D087A5809589238C93269541505109F1F643
S11340E0A5A1B6A19C9180A9892B8C93868D882348
S11340F091F080910C03882371F09FB7F89480911C
S11341000C03813029F480910A038DBB9FBF08956D
S113411080910A038FBF08958F929F92AF92BF92AE
S1134120CF92DF92EF92FF920F931F93CF93DF937F
S11341307C018B010F5F1F4FFB01B4900F2EF4EF36
S11341409F2EF02DAA24A39401C0BA94BB2009F495
S113415036C0F8016491C7010E94951FF801319699
S1134160E4910E5F1F4FFE2FF0788F2EEF778FEFC5
S11341708E0FEE2391F0302F212F90E00196080F3F
S1134180191F6801C32FD22FFE016491C7010E9439
S113419015202196CC15DD05B9F78820B1F2E80188
S11341A02196F801649170E06F3F710511F4692D57
S11341B07A2D80E090E00E94C4358E01C6CFDF9155
S11341C0CF911F910F91FF90EF90DF90CF90BF9010
S11341D0AF909F908F9008950F931F93CF93DF9389
S11341E0EC018B011BAA1AAA61E08AA50E94813600
S11341F061E089A50E94813689A590E0FC01EA5B13
S1134200FF4CE491F0E0EE0FFF1FEC59FF4C2591B9
S113421034913EA32DA3FC01EE5CFF4CE491E8AB8A
S11342208AA590E0FC01EA5BFF4CE491F0E0EE0F1C
S1134230FF1FEC59FF4C2591349138A72FA3FC01A3
S1134240EE5CFF4CE491E9AB8E8D882331F00E9443
S1134250781B80E58F8F18A23CC061E08DA50E9479
S1134260813661E08CA50E9481368DA590E0FC0129
S1134270EA5BFF4CE491F0E0EE0FFF1FEC59FF4CBA
S1134280A591B491BCA3ABA3FC01EE5CFF4C84915B
S11342908FA72CA530E0F901EA5BFF4CE491F0E034
S11342A0EE0FFF1FEC59FF4C459154915AA349A3BB
S11342B0F901EE5CFF4CE491EEA79C91E82FE095A8
S11342C0E923EC93E9A1FAA190818EA58095892335
S11342D08083EDA1FEA1908188A9809589238083A4
S11342E08BA5882309F161E00E94813661E08BA5EA
S11342F00E94BD3664EF71E080E090E00E94C43516
S113430060E08BA50E94BD3664EF71E080E090E030
S11343100E94C43561E08BA50E94BD3664EF71E054
S113432080E090E00E94C4350115110521F0B80128
S1134330CE010E948C20DF91CF911F910F9108959F
S11343406DE978E00E94EC200895EF92FF920F93BC
S11343501F93CF93DF93EC01E62E142FF22E6AE223
S11343600E94951F60E0CE010E9415206AA96E0D7F
S1134370CE010E94152060E0CE010E9415206AA99A
S11343806F0DCE010E9415206BE2CE010E94951F95
S113439060E0CE010E9415206BA9610FCE010E943E
S11343A0152060E0CE010E9415206BA9600FCE019C
S11343B00E9415206CE2CE010E94951FDF91CF91DF
S11343C01F910F91FF90EF900895EF92FF920F933A
S11343D0CF93DF93EC01790177230CF4D7C0888560
S11343E09985681779070CF0D1C055230CF4CEC019
S11343F08A859B85481759070CF0C8C001E0040F53
S113440021E0260FCE010E94A5218E8D8823D9F0AC
S11344109F8D88A120910C03222399F02FB7F89443
S113442030910C03313059F43DB330930A034DB34A
S113443030910B03309534233DBB2FBF02C0209332
S11344400A039CBD8DBDEFA1F8A5908189A9892B94
S11344508083EDA1FEA1908188A980958923808322
S11344608D8D823009F082C09701322F2227330FBD
S1134470330F330FC701807E9770822B932BEF2C61
S1134480FF24E694E694E694E82AF92A6FC0FEBC79
S113449000000DB407FEFDCF8EB570C0822F8323BC
S11344A039F0E9A1FAA190818EA5892B808307C0F8
S11344B0E9A1FAA190818EA5809589238083EBA13F
S11344C0FCA190818FA5892B8083EBA1FCA1908115
S11344D08FA5809589238083269541505109F1F653
S11344E04DC0EEBC00000DB407FEFDCF8EB522C05A
S11344F0822F832339F0E9A1FAA190818EA5892B1B
S1134500808307C0E9A1FAA190818EA580958923B3
S11345108083EBA1FCA190818FA5892B8083EBA1E3
S1134520FCA190818FA58095892380832695415095
S11345305109F1F6EDA1FEA1908188A9892B808310
S11345408E8D882319F180910C038823F9F09FB78D
S1134550F89480910C03813029F480910A038DBB77
S11345609FBF14C080910A038FBF10C03F2D8E8D52
S113457081118DCF48E050E020E890CF3E2D8E8D04
S11345808111AFCF48E050E020E8B2CFDF91CF9166
S11345900F91FF90EF900895CF92DF92EF92FF92E8
S11345A00F931F93CF93DF93EC0179016801888502
S11345B09985681779070CF0DFC08A859B854817B1
S11345C059070CF0D9C09A012E0D3F1D2150310915
S11345D0281739071CF07C01E41AF50A0FEF040FC1
S11345E00E0D262FCE010E94A5218D8D8230A1F4BF
S11345F09601322F2227330F330F330FC601807EEB
S11346009770822B932B8601012F1127069506950F
S113461006956C01C02AD12A3D2D0C2D8E8D882340
S1134620D9F09F8D88A120910C03222399F02FB7F4
S1134630F89440910C03413059F44DB340930A036C
S11346404DB350910B03509545234DBB2FBF02C072
S113465020930A039CBD8DBDEFA1F8A5908189A983
S1134660892B8083EDA1FEA1908188A9809589235F
S1134670808360E881E0E81AF10808F45AC08E8D5E
S1134680882339F03EBD00000DB407FEFDCF8EB582
S11346906CC048E050E0262F832F822339F0E9A133
S11346A0FAA190818EA5892B808307C0E9A1FAA184
S11346B090818EA5809589238083EBA1FCA19081B4
S11346C08FA5892B8083EBA1FCA190818FA5809578
S11346D089238083269541505109F1F646C00EBDC9
S11346E000000DB407FEFDCF8EB5C4CF802F82230A
S11346F039F0E9A1FAA190818EA5892B808307C0A6
S1134700E9A1FAA190818EA5809589238083EBA1EC
S1134710FCA190818FA5892B8083EBA1FCA19081C2
S11347208FA5809589238083269541505109F1F600
S1134730A1CFEDA1FEA1908188A9892B80838E8DC4
S11347408823D1F080910C038823B1F09FB7F894AB
S113475080910C03813029F480910A038DBB9FBFA3
S11347600BC080910A038FBF07C08E8D8111B7CF14
S113477048E050E0262FBACFDF91CF911F910F91DF
S1134780FF90EF90DF90CF900895CF92DF92EF9259
S1134790FF920F931F93CF93DF93EC01790168018C
S11347A088859985681779070CF0DFC02A853B85D1
S11347B0421753070CF0D9C09B012E0D3F1D215009
S11347C03109281739071CF07C01E61AF70A2FEF84
S11347D0260F2E0D042FCE010E94A5218D8D82302F
S11347E0A1F49601322F2227330F330F330FC60162
S11347F0807E9770822B932B8601012F11270695BB
S1134800069506956C01C02AD12A3D2D0C2D8E8D5E
S11348108823D9F09F8D88A120910C03222399F03D
S11348202FB7F89440910C03413059F44DB34093A1
S11348300A034DB350910B03509545234DBB2FBF35
S113484002C020930A039CBD8DBDEFA1F8A5908101
S113485089A9892B8083EDA1FEA1908188A98095E7
S11348608923808360E881E0E81AF10808F45AC0DB
S11348708E8D882339F03EBD00000DB407FEFDCFB8
S11348808EB56CC048E050E0262F832F822339F088
S1134890E9A1FAA190818EA5892B808307C0E9A1A3
S11348A0FAA190818EA5809589238083EBA1FCA138
S11348B090818FA5892B8083EBA1FCA190818FA58A
S11348C0809589238083269541505109F1F646C08D
S11348D00EBD00000DB407FEFDCF8EB5C4CF802FF2
S11348E0822339F0E9A1FAA190818EA5892B8083D6
S11348F007C0E9A1FAA190818EA5809589238083C0
S1134900EBA1FCA190818FA5892B8083EBA1FCA155
S113491090818FA5809589238083269541505109E4
S1134920F1F6A1CFEDA1FEA1908188A9892B808306
S11349308E8D8823D1F080910C038823B1F09FB72A
S1134940F89480910C03813029F480910A038DBB83
S11349509FBF0BC080910A038FBF07C08E8D81114A
S1134960B7CF48E050E0262FBACFDF91CF911F9107
S11349700F91FF90EF90DF90CF900895AF92BF9288
S1134980CF92DF92EF92FF920F931F93CF93DF9317
S1134990EC016901580188859985681779070CF03D
S11349A0F6C02A853B85421753070CF0F0C0FB0183
S11349B0EC0DFD1D3197E817F9071CF06C01C61AC0
S11349C0D70ACA018A0D9B1D0197821793071CF011
S11349D05901A41AB50A8D8D8230A1F49701322FA2
S11349E02227330F330F330FC701807E9770822B3A
S11349F0932BD701AB2FBB27A695A695A6957C0133
S1134A00EA2AFB2A0FEF040F0A0D2FEF260F2C0DB5
S1134A10CE010E94A521BF2DAE2D8E8D8823D9F005
S1134A204F8D38A180910C03882399F02FB7F89407
S1134A3080910C03813059F48DB380930A038DB3B4
S1134A4090910B03909589238DBB2FBF02C02093B7
S1134A500A034CBD3DBDEFA1F8A5908189A9892B1E
S1134A608083EDA1FEA1808198A9909589238083FC
S1134A701A141B040CF068C0A50110E81C141D04D2
S1134A800CF05EC096018E8D882339F0BEBD000007
S1134A900DB407FEFDCF8EB573C068E070E0012F42
S1134AA08B2F802339F0E9A1FAA190818EA5892B5F
S1134AB0808307C0E9A1FAA190818EA580958923FE
S1134AC08083EBA1FCA190818FA5892B8083EBA12E
S1134AD0FCA190818FA580958923808306956150E0
S1134AE07109F1F64DC0AEBD00000DB407FEFDCF57
S1134AF08EB522C08A2F802339F0E9A1FAA19081D2
S1134B008EA5892B808307C0E9A1FAA190818EA587
S1134B10809589238083EBA1FCA190818FA5892BAB
S1134B208083EBA1FCA190818FA58095892380834C
S1134B30069561507109F1F62150310909F0A3CFAE
S1134B404150510909F09ACFEDA1FEA1908188A9A5
S1134B50892B80838E8D8823D1F080910C03882348
S1134B60B1F08FB7F89490910C03913029F490919F
S1134B700A039DBB8FBF0BC080910A038FBF07C080
S1134B808E8D8111B0CF68E070E0012FB3CFDF913B
S1134B90CF911F910F91FF90EF90DF90CF90BF9036
S1134BA0AF9008951F93CF93DF93EC01162F66E324
S1134BB00E94951F612F63706D8B613099F028F00E
S1134BC06230E9F0633041F133C068ECCE010E94F9
S1134BD0152080E890E09987888780EA90E09B8799
S1134BE08A8726C068EACE010E94152080EA90E0F8
S1134BF09987888780E890E09B878A8719C068E056
S1134C00CE010E94152080E890E09987888780EA89
S1134C1090E09B878A870CC068E6CE010E9415202D
S1134C2080EA90E09987888780E890E09B878A876C
S1134C30DF91CF911F910895EF92FF920F931F93ED
S1134C40CF93DF930150003108F04BC066230CF082
S1134C5048C0122FD42FC62F7C01613E60F5DC01C1
S1134C6094968D919C9195970F70602F6C2BDC011D
S1134C70ED91FC910190F081E02D0995F70184A15B
S1134C8095A16D2F6F77DC01ED91FC910190F0817E
S1134C90E02D09956C2F6F7E603C19F1F70184A11A
S1134CA095A1612F6F77DC01ED91FC910190F0816A
S1134CB0E02D099516C0683FA0F06D3F28F46A3FC7
S1134CC028F4683F71F402C06E3F58F0F70184A1E4
S1134CD095A1DC01ED91FC910190F081E02D6C2F08
S1134CE00995DF91CF911F910F91FF90EF90089557
S1134CF00F93CF93DF93EB0101E0FC01218140E0AE
S1134D0060EB8BE193E00E941C2620E0498160EC7B
S1134D108BE193E00E941C26DF91CF910F910895BF
S1134D206F927F928F929F92AF92BF92CF92DF92B7
S1134D30EF92FF920F931F93CF93DF93EB015A01EE
S1134D4049013801970186010E94A02F882359F058
S1134D509301A401B501CE010E945C2EB301C401EC
S1134D600E9478260AC020E030E040E050E068EF7E
S1134D7071E08FED93E00E94391FDF91CF911F9175
S1134D800F91FF90EF90DF90CF90BF90AF909F90E6
S1134D908F907F906F900895CF93DF93EC018CA157
S1134DA09DA1DC01ED91FC910084F185E02D099534
S1134DB0892B09F453C18CA19DA1DC01ED91FC91D7
S1134DC00284F385E02D0995282F2B7F293F09F4D0
S1134DD047C12EA53FA52115310509F086C089A735
S1134DE02FA1222314F53CE0320F3230F0F0322FA1
S1134DF03B7F393FD1F0203F18F4322F307F01C080
S1134E00322F432F4F7E403841F0403A31F0303D4D
S1134E1021F0303E11F0303C41F4882334F029A7CE
S1134E208AA781E090E09FA78EA789A58823D4F55F
S1134E309CE0980F9230B0F1982F9B7F993F91F1AD
S1134E40803F08F00FC1982F907F492F50E0FA015E
S1134E50E058F109E038F10528F5EC5CFF4F0C94BB
S1134E605837982F9EAB1DAA1FAA18AEFE01E7540F
S1134E70FF4F81E080831FA61EA61DA61CA60DC1A0
S1134E8022E030E03DA72CA7FDC023E030E03DA7A1
S1134E902CA7F8C020E830E03DA72CA71FA290EF74
S1134EA099AFF0C01FA61EA61DA61CA61FA280E0D7
S1134EB0F4C0803F18F4982F907F01C0982F9EABC8
S1134EC08F708F5F8DAB8AA58FAB18AE1FA61EA601
S1134ED01DA61CA6C754DF4F81E08883DEC04F5F48
S1134EE05F4F5FA74EA780E0D8C08823F4F5AC01DC
S1134EF055274D3F510554F44A3F510564F4473F4B
S1134F00510591F0483F510581F505C04E5F5109A7
S1134F104230510550F58EAB1FAA18AE1DAAC754D6
S1134F20DF4F81E08883B9C089AD803FB9F4C901FE
S1134F300196FE01E20FF31F47EF41AF20EF2EABC6
S1134F408FAB98AF1DAAFE01E754FF4F81E0808329
S1134F501FA61EA61DA61CA61FA29FC01FA61EA696
S1134F601DA61CA61FA280E098C049A5403F61F47D
S1134F70FE01E20FF31F81AF8CA59DA501972817B1
S1134F80390708F465C00FC0FE01E20FF31F81A7C3
S1134F904CA55DA5CA0101972817390708F458C024
S1134FA099A5903F39F41FA61EA61DA61CA61FA2F4
S1134FB080E073C099230CF062C08CE0890F8230CA
S1134FC008F45DC0892F8B7F893F09F458C0903F56
S1134FD018F4892F807F01C0892F8EAB282F2F7E54
S1134FE0203841F0203A31F0803D21F0803E11F02C
S1134FF0803C29F4292F2F702F5F2DAB01C01DAAEF
S11350002AA52FAB4330510511F42BA501C020E094
S113501028AF1FA61EA61DA61CA621E0FE01E7546C
S1135020FF4F2083803B71F038F4803959F0803A87
S113503049F0803851F406C0803D21F0803E11F0E3
S1135040803C19F49FA381E028C01FA281E025C001
S11350502F5F3F4F3FA72EA780E01FC080E01DC0F9
S113506080E01BC0482F50E0FA01E058F109E03815
S1135070F10508F017CFEC54FF4F0C9458371EAAD3
S113508080E0BDCF4EA55FA52CA53DA521503109DB
S11350904217530708F423CF0CCFDF91CF91089523
S11350A0DC01D696EC91D6974E2F50E0FA01E058E9
S11350B0F109E038F10508F0FAC0EC5CFE4F0C94FD
S11350C05837ED91FC911197309709F4F0C0D896B8
S11350D04C91D897D7966C91D797D5968C91099582
S11350E008951296ED91FC911397309709F4DFC05F
S11350F0D8964C91D897D7966C91D797D5968C9192
S1135100099508955896ED91FC915997309709F4B3
S1135110CEC0099508955A96ED91FC915B9730970E
S113512009F4C5C0099508955C96ED91FC915D97CD
S1135130309709F4BCC0099508955E96ED91FC91F1
S11351405F97309709F4B3C0099508959096ED914F
S1135150FC919197309709F4AAC009950895169681
S1135160ED91FC911797309709F4A1C0D8964C9112
S1135170D897D7966C91D797D5968C910995089521
S11351801C96ED91FC911D97309709F490C0D89628
S11351906C91D8976F7720E8629FB0011124D7965D
S11351A08C91D7978F77682B7052D5968C910995EF
S11351B008951496ED91FC911597309709F477C0F2
S11351C0D8964C91D897D7966C91D797D5968C91C1
S11351D0099508951A96ED91FC911B97309709F45F
S11351E066C0D7966C91D797D5968C9109950895FA
S11351F01896ED91FC911997309709F458C0D796F9
S11352006C91D797D5968C91099508951E96ED913A
S1135210FC911F97309709F44AC0D8966C91D8979F
S113522070E0762F6627D7968C91D797682B6138D4
S1135230710510F060E870E0CD01C99609950895F4
S11352405096ED91FC915197309789F1D7968C91B6
S1135250099508955296ED91FC915397309739F141
S1135260D8968C91D8978F7720E8829FC00111241B
S1135270D7962C912F77822B099508955496ED910A
S1135280FC915597309799F0D7968C91099508958C
S11352905696ED91FC915797309749F009950895EA
S11352A09296ED91FC919397309709F009950895A2
S11352B0EF92FF920F931F93CF93DF93FC0194A976
S11352C0292F217090FFEAC0892F8E7F09F4E6C050
S11352D0EF0136A980E8830F813648F505A9061742
S11352E009F4D1C0892F8695823061F0833099F01A
S11352F0813009F0D3C028AD4FA9632FCE010E949D
S11353001C26CCC06111CAC028AD4FA9632FCE01A1
S11353100E941C26C3C021E0611120E02111BEC0FF
S113532028AD4FA9632FCE010E941C26B7C0832F3E
S113533090E0FC01E05FF109E031F10508F0AEC056
S1135340EC54FE4F0C9458373D3F30F43A3F38F458
S1135350383F09F0A3C003C03E3F08F49FC08CA1AE
S11353609DA1DC01ED91FC910190F081E02D632F72
S1135370099594C07E01B9E3EB0EF11C88AD90E071
S1135380982F88272FA9822B8138910510F080E867
S113539090E0009709F482C08701E80EF91E8CA101
S11353A09DA1F80161918F01DC01ED91FC910190C7
S11353B0F081E02D0995E016F10689F76FC01FA969
S11353C08CA19DA1DC01ED91FC910190F081E02D77
S11353D063EF09958CA19DA1612F6F77DC01ED919D
S11353E0FC910190F081E02D099558C008ADB0E81A
S11353F00B9F800111248FA9082B8CA19DA1DC0196
S1135400ED91FC910190F081E02D62EF09958CA162
S11354109DA1B8016F777727DC01ED91FC91019094
S1135420F081E02D09958CA19DA1B801660F672F2D
S1135430661F770B71956F777727DC01ED91FC91EF
S11354400190F081E02D099529C08FA98770B0E102
S11354508B9FC001112418AD1F70182B8CA19DA126
S1135460DC01ED91FC910190F081E02D61EF099553
S11354708CA19DA1DC01ED91FC910190F081E02DC6
S1135480612F09950BC084A98695823009F43CCF1D
S1135490833009F443CF813009F42DCFDF91CF91CC
S11354A01F910F91FF90EF900895CF92DF92EF92AA
S11354B0FF920F931F93CF93DF936C017B01CBE19A
S11354C0D3E000E8809112010E94EC36019779F54F
S11354D01EA11131B8F7CE010E94CC26882391F386
S11354E08EA9803929F488AD811105C00EAB03C0A3
S11354F08058813628F48DA9181711F0111112C0A3
S1135500CE010E945028612FCE010E9458298EA9F5
S11355108039C1F680915203F601808381E0F7015E
S1135520808305C0612FCE010E945829CBCFDF9123
S1135530CF911F910F91FF90EF90DF90CF9008953E
S1135540CF92DF92EF92FF920F931F93CF93DF934B
S1135550E0911A03F0E0E050FF4F40816DE086E1F6
S113556094E00E946F1866E174E08CE194E00E947C
S113557020198F3F09F4DAC1823009F4E4C030F411
S1135580882369F1813009F475C07AC1843029F027
S1135590A8F0853009F423C173C1809118038130C8
S11355A029F480911B0480931A0349C2833009F0C3
S11355B046C280911B048093190341C28091180351
S11355C0823029F480911A048093170338C28430FE
S11355D009F035C280911A048093160330C2809179
S11355E01803853011F58091150381118150809342
S11355F015030F2EFFE0CF2EF3E0DF2EF02D0F2E3C
S1135600F0E1EF2EF3E0FF2EF02D01E113E023E1B2
S113561033E046E153E069E173E00E94902660E0E4
S1135620809115030E949F3281C1609110030E94F2
S1135630412E80931803E0900E0301E0282F43E1EC
S113564053E061E173E089E193E00E947832809154
S11356501003882309F46AC1E0900E0300E020914E
S1135660180343E153E061E173E089E193E00E94B0
S113567078325CC16FE178EF8FED93E00E94131FE5
S113568080911803853009F510921803E0900E03F9
S113569001E020E043E153E061E173E089E193E05C
S11356A00E94783280911003882309F43FC1E0906E
S11356B00E0300E02091180343E153E061E173E03D
S11356C089E193E00E94783231C110921003109264
S11356D00F0324E130E040E050E060E072E08FED41
S11356E093E00E94391F2FEF89E698E12150804012
S11356F09040E1F700C0000060E173E08FE093E0C8
S11357000E94552A10921803E0900E0301E020E055
S113571043E153E061E173E089E193E00E94783270
S113572080911003882309F401C1E0900E0300E086
S11357302091180343E153E061E173E089E193E0D0
S11357400E947832F3C080911803853019F5809156
S11357501503853008F48F5F809315030F2EFFE047
S1135760CF2EF3E0DF2EF02D0F2EF0E1EF2EF3E03D
S1135770FF2EF02D01E113E023E133E046E153E095
S113578069E173E00E94902662E0809115030E9413
S11357909F32CCC080910E0381110FC001E020E044
S11357A040E060EB8BE193E00E941C2683E0809351
S11357B04F0381E080930E030AC010924F031092AE
S11357C00E0361E173E083E193E00E947826409147
S11357D00E0361E0809118030E94F531A7C06FE1C8
S11357E078EF8FED93E00E94131FC0E0D0E080912A
S11357F010010E94EC36019771F02FEF89E698E1D1
S1135800215080409040E1F700C000002196C43050
S1135810D10569F702C0249721F500910F03209167
S1135820100346E153E069E173E0809115030E949F
S1135830682F882359F020E030E040E050E06CE02D
S113584072E08FED93E00E94391F70C020E030E0D9
S113585040E050E062E172E08FED93E00E94391F76
S113586065C06FE178EF8FED93E00E94131F85E030
S1135870809318036FEF809115030E949F3256C0E6
S113588090910E03911152C08350823008F04EC0A3
S113589021E133E043E153E066E173E089E193E021
S11358A00E945C2E809118038230C9F018F4813074
S11358B031F036C08330E1F0843051F131C041E041
S11358C061E089E193E00E945C302091180341E09B
S11358D061E173E083E193E00E94DC3021C022E0C7
S11358E041E061E173E083E193E00E94DC3018C0A1
S11358F043E060E089E193E00E945C30209118036A
S113590040E061E173E083E193E00E94DC3008C091
S113591024E040E061E173E083E193E00E94DC3045
S113592061E173E083E193E00E947826C091410332
S1135930C13108F07FC08BE193E00E94CC2688231C
S113594009F478C080915103803941F48091530364
S1135950811107C080E88093510303C080588136C9
S113596030F480915003C81711F0C1116DC08BE160
S113597093E00E9450286C2F8BE193E00E945829F9
S113598080910E03811166C0EBE1F3E047A94093D7
S1135990150420AD2093140405A90093130486A9CB
S11359A0803961F0803B21F0803809F043C03DC06C
S11359B060EB8BE193E00E941C263CC080911003B5
S11359C0882339F180910F03481790F401E0209166
S11359D0130340E060EB8BE193E00E941C2620E07F
S11359E04091110360EC8BE193E00E941C2611C0EE
S11359F001E02091140340E060EB8BE193E00E940E
S1135A001C2620E04091120360EC8BE193E00E949D
S1135A101C2600911304209114044091150460E99C
S1135A208BE193E00E941C2605C060E88BE193E0C3
S1135A300E941C2686E194E00E942B2E0BC08091CC
S1135A400E03811173CF24CF6C2F8BE193E00E945E
S1135A505829F0CFDF91CF911F910F91FF90EF90D4
S1135A60DF90CF900895CF93DF9328E049E06AE078
S1135A708FED93E00E94B21B85ED93E00E946918BC
S1135A80EBE1F3E083E394E095A384A316A217A2C9
S1135A9010A615A614A617A616A68FEF9FEF91AB16
S1135AA080AB93AB82AB83E080934F0315AA16AA15
S1135AB017AA10AE1092D40380E8A4E5B3E0ED0178
S1135AC019928A95E9F71182108213821282158243
S1135AD01482178216821186108613861286158602
S1135AE0148617861686118A108A138A128A158AD2
S1135AF0148A178A168A118E108E138E128E158EA2
S1135B00148E178E168E11A210A213A212A2DF9168
S1135B10CF91089585ED93E00E946E180895CF9378
S1135B20DF930E94781B62E0809113010E9481360A
S1135B3062E0809112010E94813662E0809111013D
S1135B400E94813662E0809110010E94813661E0FA
S1135B5080910E010E94813661E080910D010E94C6
S1135B608136CBE1D3E026E042E15AE760E070E021
S1135B708CA19DA10E942A341EA218A61FA21FA6B2
S1135B801EA61DA61CA68FEF9FEF99AB88AB9BABFF
S1135B908AAB1092D4031EAA1DAA1FAA18AE109293
S1135BA04F038FED93E00E94C61B6FE178EF8FEDFA
S1135BB093E00E94551F20E040E060E08FED93E009
S1135BC00E941B1F62E08FED93E00E944F1FDF9144
S1135BD0CF910895CF93DF9300D0CDB7DEB70E9465
S1135BE000360E948F2DCE0101960E94B7190597A9
S1135BF069F40E94311B20E030E040E050E06EE1A7
S1135C0072E08FED93E00E94391FFFCF40E061E026
S1135C1080E00E94F53140E061E080E090E00E9485
S1135C205C3020E041E060E070E080E090E00E94C1
S1135C30DC3001E020E040E060EB8BE193E00E9487
S1135C401C2620E040E060EC8BE193E00E941C26DF
S1135C500E94A02AFDCFCF93DF93EC0161E08881FD
S1135C60811160E080910E010E94BD3661E089815E
S1135C70811160E080910D010E94BD36DF91CF91CA
S1135C800895882399F0813011F482E008956130F9
S1135C9079F4833029F0843039F0823019F40AC061
S1135CA084E0089580E0089580E0089581E00895F7
S1135CB080E0089583E00895FF920F931F93CF939C
S1135CC0DF93D901C62FD72F042F152F2E5F3F4FF7
S1135CD06894FF24F2F8FC014191CF0150E04D306B
S1135CE0510508F0E5C0FA01EC53FE4F0C94583707
